{
  "_format": "hh-sol-artifact-1",
  "contractName": "EthoraNFMT",
  "sourceName": "contracts/EthoraNFMT.sol",
  "abi": [
    {
      "inputs": [
        {
          "internalType": "address",
          "name": "owner_",
          "type": "address"
        },
        {
          "internalType": "string",
          "name": "name_",
          "type": "string"
        },
        {
          "internalType": "string[]",
          "name": "urls_",
          "type": "string[]"
        },
        {
          "internalType": "address[]",
          "name": "beneficiaries_",
          "type": "address[]"
        },
        {
          "internalType": "uint256[]",
          "name": "splitPercents_",
          "type": "uint256[]"
        },
        {
          "internalType": "uint256[]",
          "name": "maxSupplies_",
          "type": "uint256[]"
        },
        {
          "internalType": "uint256[]",
          "name": "costs_",
          "type": "uint256[]"
        }
      ],
      "stateMutability": "nonpayable",
      "type": "constructor"
    },
    {
      "anonymous": false,
      "inputs": [
        {
          "indexed": true,
          "internalType": "address",
          "name": "account",
          "type": "address"
        },
        {
          "indexed": true,
          "internalType": "address",
          "name": "operator",
          "type": "address"
        },
        {
          "indexed": false,
          "internalType": "bool",
          "name": "approved",
          "type": "bool"
        }
      ],
      "name": "ApprovalForAll",
      "type": "event"
    },
    {
      "anonymous": false,
      "inputs": [
        {
          "indexed": true,
          "internalType": "address",
          "name": "previousOwner",
          "type": "address"
        },
        {
          "indexed": true,
          "internalType": "address",
          "name": "newOwner",
          "type": "address"
        }
      ],
      "name": "OwnershipTransferred",
      "type": "event"
    },
    {
      "anonymous": false,
      "inputs": [
        {
          "indexed": false,
          "internalType": "address",
          "name": "account",
          "type": "address"
        }
      ],
      "name": "Paused",
      "type": "event"
    },
    {
      "anonymous": false,
      "inputs": [
        {
          "indexed": true,
          "internalType": "address",
          "name": "operator",
          "type": "address"
        },
        {
          "indexed": true,
          "internalType": "address",
          "name": "from",
          "type": "address"
        },
        {
          "indexed": true,
          "internalType": "address",
          "name": "to",
          "type": "address"
        },
        {
          "indexed": false,
          "internalType": "uint256[]",
          "name": "ids",
          "type": "uint256[]"
        },
        {
          "indexed": false,
          "internalType": "uint256[]",
          "name": "values",
          "type": "uint256[]"
        }
      ],
      "name": "TransferBatch",
      "type": "event"
    },
    {
      "anonymous": false,
      "inputs": [
        {
          "indexed": true,
          "internalType": "address",
          "name": "operator",
          "type": "address"
        },
        {
          "indexed": true,
          "internalType": "address",
          "name": "from",
          "type": "address"
        },
        {
          "indexed": true,
          "internalType": "address",
          "name": "to",
          "type": "address"
        },
        {
          "indexed": false,
          "internalType": "uint256",
          "name": "id",
          "type": "uint256"
        },
        {
          "indexed": false,
          "internalType": "uint256",
          "name": "value",
          "type": "uint256"
        }
      ],
      "name": "TransferSingle",
      "type": "event"
    },
    {
      "anonymous": false,
      "inputs": [
        {
          "indexed": false,
          "internalType": "string",
          "name": "value",
          "type": "string"
        },
        {
          "indexed": true,
          "internalType": "uint256",
          "name": "id",
          "type": "uint256"
        }
      ],
      "name": "URI",
      "type": "event"
    },
    {
      "anonymous": false,
      "inputs": [
        {
          "indexed": false,
          "internalType": "address",
          "name": "account",
          "type": "address"
        }
      ],
      "name": "Unpaused",
      "type": "event"
    },
    {
      "inputs": [
        {
          "internalType": "address",
          "name": "account",
          "type": "address"
        },
        {
          "internalType": "uint256",
          "name": "id",
          "type": "uint256"
        }
      ],
      "name": "balanceOf",
      "outputs": [
        {
          "internalType": "uint256",
          "name": "",
          "type": "uint256"
        }
      ],
      "stateMutability": "view",
      "type": "function"
    },
    {
      "inputs": [
        {
          "internalType": "address[]",
          "name": "accounts",
          "type": "address[]"
        },
        {
          "internalType": "uint256[]",
          "name": "ids",
          "type": "uint256[]"
        }
      ],
      "name": "balanceOfBatch",
      "outputs": [
        {
          "internalType": "uint256[]",
          "name": "",
          "type": "uint256[]"
        }
      ],
      "stateMutability": "view",
      "type": "function"
    },
    {
      "inputs": [
        {
          "internalType": "address",
          "name": "",
          "type": "address"
        }
      ],
      "name": "balances",
      "outputs": [
        {
          "internalType": "uint256",
          "name": "",
          "type": "uint256"
        }
      ],
      "stateMutability": "view",
      "type": "function"
    },
    {
      "inputs": [
        {
          "internalType": "uint256",
          "name": "",
          "type": "uint256"
        }
      ],
      "name": "beneficiaries",
      "outputs": [
        {
          "internalType": "address",
          "name": "",
          "type": "address"
        }
      ],
      "stateMutability": "view",
      "type": "function"
    },
    {
      "inputs": [
        {
          "internalType": "address",
          "name": "account",
          "type": "address"
        },
        {
          "internalType": "uint256",
          "name": "id",
          "type": "uint256"
        },
        {
          "internalType": "uint256",
          "name": "value",
          "type": "uint256"
        }
      ],
      "name": "burn",
      "outputs": [],
      "stateMutability": "nonpayable",
      "type": "function"
    },
    {
      "inputs": [
        {
          "internalType": "address",
          "name": "account",
          "type": "address"
        },
        {
          "internalType": "uint256[]",
          "name": "ids",
          "type": "uint256[]"
        },
        {
          "internalType": "uint256[]",
          "name": "values",
          "type": "uint256[]"
        }
      ],
      "name": "burnBatch",
      "outputs": [],
      "stateMutability": "nonpayable",
      "type": "function"
    },
    {
      "inputs": [],
      "name": "coinAddress",
      "outputs": [
        {
          "internalType": "address",
          "name": "",
          "type": "address"
        }
      ],
      "stateMutability": "view",
      "type": "function"
    },
    {
      "inputs": [
        {
          "internalType": "uint256",
          "name": "",
          "type": "uint256"
        }
      ],
      "name": "costs",
      "outputs": [
        {
          "internalType": "uint256",
          "name": "",
          "type": "uint256"
        }
      ],
      "stateMutability": "view",
      "type": "function"
    },
    {
      "inputs": [
        {
          "internalType": "uint256",
          "name": "id",
          "type": "uint256"
        }
      ],
      "name": "exists",
      "outputs": [
        {
          "internalType": "bool",
          "name": "",
          "type": "bool"
        }
      ],
      "stateMutability": "view",
      "type": "function"
    },
    {
      "inputs": [
        {
          "internalType": "address",
          "name": "account",
          "type": "address"
        },
        {
          "internalType": "address",
          "name": "operator",
          "type": "address"
        }
      ],
      "name": "isApprovedForAll",
      "outputs": [
        {
          "internalType": "bool",
          "name": "",
          "type": "bool"
        }
      ],
      "stateMutability": "view",
      "type": "function"
    },
    {
      "inputs": [],
      "name": "maxId",
      "outputs": [
        {
          "internalType": "uint256",
          "name": "",
          "type": "uint256"
        }
      ],
      "stateMutability": "view",
      "type": "function"
    },
    {
      "inputs": [
        {
          "internalType": "uint256",
          "name": "",
          "type": "uint256"
        }
      ],
      "name": "maxSupplies",
      "outputs": [
        {
          "internalType": "uint256",
          "name": "",
          "type": "uint256"
        }
      ],
      "stateMutability": "view",
      "type": "function"
    },
    {
      "inputs": [
        {
          "internalType": "uint256",
          "name": "id",
          "type": "uint256"
        },
        {
          "internalType": "uint256",
          "name": "amount",
          "type": "uint256"
        },
        {
          "internalType": "address",
          "name": "target",
          "type": "address"
        }
      ],
      "name": "mint",
      "outputs": [],
      "stateMutability": "payable",
      "type": "function"
    },
    {
      "inputs": [],
      "name": "name",
      "outputs": [
        {
          "internalType": "string",
          "name": "",
          "type": "string"
        }
      ],
      "stateMutability": "view",
      "type": "function"
    },
    {
      "inputs": [],
      "name": "owner",
      "outputs": [
        {
          "internalType": "address",
          "name": "",
          "type": "address"
        }
      ],
      "stateMutability": "view",
      "type": "function"
    },
    {
      "inputs": [],
      "name": "pause",
      "outputs": [],
      "stateMutability": "nonpayable",
      "type": "function"
    },
    {
      "inputs": [],
      "name": "paused",
      "outputs": [
        {
          "internalType": "bool",
          "name": "",
          "type": "bool"
        }
      ],
      "stateMutability": "view",
      "type": "function"
    },
    {
      "inputs": [],
      "name": "renounceOwnership",
      "outputs": [],
      "stateMutability": "nonpayable",
      "type": "function"
    },
    {
      "inputs": [
        {
          "internalType": "address",
          "name": "from",
          "type": "address"
        },
        {
          "internalType": "address",
          "name": "to",
          "type": "address"
        },
        {
          "internalType": "uint256[]",
          "name": "ids",
          "type": "uint256[]"
        },
        {
          "internalType": "uint256[]",
          "name": "amounts",
          "type": "uint256[]"
        },
        {
          "internalType": "bytes",
          "name": "data",
          "type": "bytes"
        }
      ],
      "name": "safeBatchTransferFrom",
      "outputs": [],
      "stateMutability": "nonpayable",
      "type": "function"
    },
    {
      "inputs": [
        {
          "internalType": "address",
          "name": "from",
          "type": "address"
        },
        {
          "internalType": "address",
          "name": "to",
          "type": "address"
        },
        {
          "internalType": "uint256",
          "name": "id",
          "type": "uint256"
        },
        {
          "internalType": "uint256",
          "name": "amount",
          "type": "uint256"
        },
        {
          "internalType": "bytes",
          "name": "data",
          "type": "bytes"
        }
      ],
      "name": "safeTransferFrom",
      "outputs": [],
      "stateMutability": "nonpayable",
      "type": "function"
    },
    {
      "inputs": [
        {
          "internalType": "address",
          "name": "operator",
          "type": "address"
        },
        {
          "internalType": "bool",
          "name": "approved",
          "type": "bool"
        }
      ],
      "name": "setApprovalForAll",
      "outputs": [],
      "stateMutability": "nonpayable",
      "type": "function"
    },
    {
      "inputs": [
        {
          "internalType": "uint256",
          "name": "",
          "type": "uint256"
        }
      ],
      "name": "splitPercents",
      "outputs": [
        {
          "internalType": "uint256",
          "name": "",
          "type": "uint256"
        }
      ],
      "stateMutability": "view",
      "type": "function"
    },
    {
      "inputs": [
        {
          "internalType": "bytes4",
          "name": "interfaceId",
          "type": "bytes4"
        }
      ],
      "name": "supportsInterface",
      "outputs": [
        {
          "internalType": "bool",
          "name": "",
          "type": "bool"
        }
      ],
      "stateMutability": "view",
      "type": "function"
    },
    {
      "inputs": [
        {
          "internalType": "uint256",
          "name": "id",
          "type": "uint256"
        }
      ],
      "name": "totalSupply",
      "outputs": [
        {
          "internalType": "uint256",
          "name": "",
          "type": "uint256"
        }
      ],
      "stateMutability": "view",
      "type": "function"
    },
    {
      "inputs": [
        {
          "internalType": "address",
          "name": "newOwner",
          "type": "address"
        }
      ],
      "name": "transferOwnership",
      "outputs": [],
      "stateMutability": "nonpayable",
      "type": "function"
    },
    {
      "inputs": [],
      "name": "unpause",
      "outputs": [],
      "stateMutability": "nonpayable",
      "type": "function"
    },
    {
      "inputs": [
        {
          "internalType": "uint256",
          "name": "tokenId",
          "type": "uint256"
        }
      ],
      "name": "uri",
      "outputs": [
        {
          "internalType": "string",
          "name": "",
          "type": "string"
        }
      ],
      "stateMutability": "view",
      "type": "function"
    },
    {
      "inputs": [
        {
          "internalType": "uint256",
          "name": "",
          "type": "uint256"
        }
      ],
      "name": "urls",
      "outputs": [
        {
          "internalType": "string",
          "name": "",
          "type": "string"
        }
      ],
      "stateMutability": "view",
      "type": "function"
    },
    {
      "inputs": [
        {
          "internalType": "address",
          "name": "to_",
          "type": "address"
        }
      ],
      "name": "withdraw",
      "outputs": [],
      "stateMutability": "nonpayable",
      "type": "function"
    }
  ],
  "bytecode": "0x60806040523480156200001157600080fd5b506040516200563838038062005638833981810160405281019062000037919062000a42565b6040518060200160405280600081525062000058816200021560201b60201c565b506000600360006101000a81548160ff0219169083151502179055506001600581905550600084511180156200008f575060048451105b620000d1576040517f08c379a0000000000000000000000000000000000000000000000000000000008152600401620000c89062000c10565b60405180910390fd5b815181511462000118576040517f08c379a00000000000000000000000000000000000000000000000000000000081526004016200010f9062000ca8565b60405180910390fd5b62000129876200023160201b60201c565b86600960006101000a81548173ffffffffffffffffffffffffffffffffffffffff021916908373ffffffffffffffffffffffffffffffffffffffff16021790555083600a908051906020019062000182929190620002f7565b5082600c90805190602001906200019b92919062000386565b508460079080519060200190620001b4929190620003d8565b5081600d9080519060200190620001cd92919062000386565b50815160088190555080600e9080519060200190620001ee92919062000386565b508560069080519060200190620002079291906200043f565b505050505050505062000d2f565b80600290805190602001906200022d9291906200043f565b5050565b6000600960009054906101000a900473ffffffffffffffffffffffffffffffffffffffff16905081600960006101000a81548173ffffffffffffffffffffffffffffffffffffffff021916908373ffffffffffffffffffffffffffffffffffffffff1602179055508173ffffffffffffffffffffffffffffffffffffffff168173ffffffffffffffffffffffffffffffffffffffff167f8be0079c531659141344cd1fd0a4f28419497f9722a3daafe3b4186f6b6457e060405160405180910390a35050565b82805482825590600052602060002090810192821562000373579160200282015b82811115620003725782518260006101000a81548173ffffffffffffffffffffffffffffffffffffffff021916908373ffffffffffffffffffffffffffffffffffffffff1602179055509160200191906001019062000318565b5b509050620003829190620004d0565b5090565b828054828255906000526020600020908101928215620003c5579160200282015b82811115620003c4578251825591602001919060010190620003a7565b5b509050620003d49190620004d0565b5090565b8280548282559060005260206000209081019282156200042c579160200282015b828111156200042b5782518290805190602001906200041a9291906200043f565b5091602001919060010190620003f9565b5b5090506200043b9190620004ef565b5090565b8280546200044d9062000cf9565b90600052602060002090601f016020900481019282620004715760008555620004bd565b82601f106200048c57805160ff1916838001178555620004bd565b82800160010185558215620004bd579182015b82811115620004bc5782518255916020019190600101906200049f565b5b509050620004cc9190620004d0565b5090565b5b80821115620004eb576000816000905550600101620004d1565b5090565b5b8082111562000513576000818162000509919062000517565b50600101620004f0565b5090565b508054620005259062000cf9565b6000825580601f106200053957506200055a565b601f016020900490600052602060002090810190620005599190620004d0565b5b50565b6000604051905090565b600080fd5b600080fd5b600073ffffffffffffffffffffffffffffffffffffffff82169050919050565b60006200059e8262000571565b9050919050565b620005b08162000591565b8114620005bc57600080fd5b50565b600081519050620005d081620005a5565b92915050565b600080fd5b600080fd5b6000601f19601f8301169050919050565b7f4e487b7100000000000000000000000000000000000000000000000000000000600052604160045260246000fd5b6200062b82620005e0565b810181811067ffffffffffffffff821117156200064d576200064c620005f1565b5b80604052505050565b6000620006626200055d565b905062000670828262000620565b919050565b600067ffffffffffffffff821115620006935762000692620005f1565b5b6200069e82620005e0565b9050602081019050919050565b60005b83811015620006cb578082015181840152602081019050620006ae565b83811115620006db576000848401525b50505050565b6000620006f8620006f28462000675565b62000656565b905082815260208101848484011115620007175762000716620005db565b5b62000724848285620006ab565b509392505050565b600082601f830112620007445762000743620005d6565b5b815162000756848260208601620006e1565b91505092915050565b600067ffffffffffffffff8211156200077d576200077c620005f1565b5b602082029050602081019050919050565b600080fd5b6000620007aa620007a4846200075f565b62000656565b90508083825260208201905060208402830185811115620007d057620007cf6200078e565b5b835b818110156200081e57805167ffffffffffffffff811115620007f957620007f8620005d6565b5b8086016200080889826200072c565b85526020850194505050602081019050620007d2565b5050509392505050565b600082601f83011262000840576200083f620005d6565b5b81516200085284826020860162000793565b91505092915050565b600067ffffffffffffffff821115620008795762000878620005f1565b5b602082029050602081019050919050565b6000620008a16200089b846200085b565b62000656565b90508083825260208201905060208402830185811115620008c757620008c66200078e565b5b835b81811015620008f45780620008df8882620005bf565b845260208401935050602081019050620008c9565b5050509392505050565b600082601f830112620009165762000915620005d6565b5b8151620009288482602086016200088a565b91505092915050565b600067ffffffffffffffff8211156200094f576200094e620005f1565b5b602082029050602081019050919050565b6000819050919050565b620009758162000960565b81146200098157600080fd5b50565b60008151905062000995816200096a565b92915050565b6000620009b2620009ac8462000931565b62000656565b90508083825260208201905060208402830185811115620009d857620009d76200078e565b5b835b8181101562000a055780620009f0888262000984565b845260208401935050602081019050620009da565b5050509392505050565b600082601f83011262000a275762000a26620005d6565b5b815162000a398482602086016200099b565b91505092915050565b600080600080600080600060e0888a03121562000a645762000a6362000567565b5b600062000a748a828b01620005bf565b975050602088015167ffffffffffffffff81111562000a985762000a976200056c565b5b62000aa68a828b016200072c565b965050604088015167ffffffffffffffff81111562000aca5762000ac96200056c565b5b62000ad88a828b0162000828565b955050606088015167ffffffffffffffff81111562000afc5762000afb6200056c565b5b62000b0a8a828b01620008fe565b945050608088015167ffffffffffffffff81111562000b2e5762000b2d6200056c565b5b62000b3c8a828b0162000a0f565b93505060a088015167ffffffffffffffff81111562000b605762000b5f6200056c565b5b62000b6e8a828b0162000a0f565b92505060c088015167ffffffffffffffff81111562000b925762000b916200056c565b5b62000ba08a828b0162000a0f565b91505092959891949750929550565b600082825260208201905092915050565b7f62656e656669636961726965735f2e6c656e6774680000000000000000000000600082015250565b600062000bf860158362000baf565b915062000c058262000bc0565b602082019050919050565b6000602082019050818103600083015262000c2b8162000be9565b9050919050565b7f636f7374735f2e6c656e677468203d3d206d6178537570706c6965735f2e6c6560008201527f6e67746800000000000000000000000000000000000000000000000000000000602082015250565b600062000c9060248362000baf565b915062000c9d8262000c32565b604082019050919050565b6000602082019050818103600083015262000cc38162000c81565b9050919050565b7f4e487b7100000000000000000000000000000000000000000000000000000000600052602260045260246000fd5b6000600282049050600182168062000d1257607f821691505b6020821081141562000d295762000d2862000cca565b5b50919050565b6148f98062000d3f6000396000f3fe6080604052600436106101c15760003560e01c8063796676be116100f7578063d75911b411610095578063f242432a11610064578063f242432a14610690578063f2fde38b146106b9578063f5298aca146106e2578063fdc61dd11461070b576101c1565b8063d75911b4146105bd578063e7d3fe6b146105fa578063e985e9c514610616578063efeb5e5814610653576101c1565b80638da5cb5b116100d15780638da5cb5b14610501578063a22cb4651461052c578063bd85b03914610555578063c5ea3c6514610592576101c1565b8063796676be146104705780638456cb59146104ad57806387962dcc146104c4576101c1565b806349b3b29f1161016457806351cff8d91161013e57806351cff8d9146103dc5780635c975abb146104055780636b20c45414610430578063715018a614610459576101c1565b806349b3b29f146103255780634e1273f4146103625780634f558e791461039f576101c1565b80630e89341c116101a05780630e89341c1461026b57806327e235e3146102a85780632eb2c2d6146102e55780633f4ba83a1461030e576101c1565b8062fdd58e146101c657806301ffc9a71461020357806306fdde0314610240575b600080fd5b3480156101d257600080fd5b506101ed60048036038101906101e89190612ede565b610736565b6040516101fa9190612f2d565b60405180910390f35b34801561020f57600080fd5b5061022a60048036038101906102259190612fa0565b6107ff565b6040516102379190612fe8565b60405180910390f35b34801561024c57600080fd5b506102556108e1565b604051610262919061309c565b60405180910390f35b34801561027757600080fd5b50610292600480360381019061028d91906130be565b61096f565b60405161029f919061309c565b60405180910390f35b3480156102b457600080fd5b506102cf60048036038101906102ca91906130eb565b610a2b565b6040516102dc9190612f2d565b60405180910390f35b3480156102f157600080fd5b5061030c60048036038101906103079190613315565b610a43565b005b34801561031a57600080fd5b50610323610ae4565b005b34801561033157600080fd5b5061034c600480360381019061034791906130be565b610b6a565b6040516103599190612f2d565b60405180910390f35b34801561036e57600080fd5b50610389600480360381019061038491906134a7565b610b8e565b60405161039691906135dd565b60405180910390f35b3480156103ab57600080fd5b506103c660048036038101906103c191906130be565b610ca7565b6040516103d39190612fe8565b60405180910390f35b3480156103e857600080fd5b5061040360048036038101906103fe91906130eb565b610cbb565b005b34801561041157600080fd5b5061041a610e62565b6040516104279190612fe8565b60405180910390f35b34801561043c57600080fd5b50610457600480360381019061045291906135ff565b610e79565b005b34801561046557600080fd5b5061046e610f16565b005b34801561047c57600080fd5b50610497600480360381019061049291906130be565b610f9e565b6040516104a4919061309c565b60405180910390f35b3480156104b957600080fd5b506104c261104a565b005b3480156104d057600080fd5b506104eb60048036038101906104e691906130be565b6110d0565b6040516104f89190612f2d565b60405180910390f35b34801561050d57600080fd5b506105166110f4565b6040516105239190613699565b60405180910390f35b34801561053857600080fd5b50610553600480360381019061054e91906136e0565b61111e565b005b34801561056157600080fd5b5061057c600480360381019061057791906130be565b611134565b6040516105899190612f2d565b60405180910390f35b34801561059e57600080fd5b506105a7611151565b6040516105b49190612f2d565b60405180910390f35b3480156105c957600080fd5b506105e460048036038101906105df91906130be565b611157565b6040516105f19190612f2d565b60405180910390f35b610614600480360381019061060f9190613720565b61117b565b005b34801561062257600080fd5b5061063d60048036038101906106389190613773565b611419565b60405161064a9190612fe8565b60405180910390f35b34801561065f57600080fd5b5061067a600480360381019061067591906130be565b6114ad565b6040516106879190613699565b60405180910390f35b34801561069c57600080fd5b506106b760048036038101906106b291906137b3565b6114ec565b005b3480156106c557600080fd5b506106e060048036038101906106db91906130eb565b61158d565b005b3480156106ee57600080fd5b506107096004803603810190610704919061384a565b611685565b005b34801561071757600080fd5b50610720611722565b60405161072d9190613699565b60405180910390f35b60008073ffffffffffffffffffffffffffffffffffffffff168373ffffffffffffffffffffffffffffffffffffffff1614156107a7576040517f08c379a000000000000000000000000000000000000000000000000000000000815260040161079e9061390f565b60405180910390fd5b60008083815260200190815260200160002060008473ffffffffffffffffffffffffffffffffffffffff1673ffffffffffffffffffffffffffffffffffffffff16815260200190815260200160002054905092915050565b60007fd9b67a26000000000000000000000000000000000000000000000000000000007bffffffffffffffffffffffffffffffffffffffffffffffffffffffff1916827bffffffffffffffffffffffffffffffffffffffffffffffffffffffff191614806108ca57507f0e89341c000000000000000000000000000000000000000000000000000000007bffffffffffffffffffffffffffffffffffffffffffffffffffffffff1916827bffffffffffffffffffffffffffffffffffffffffffffffffffffffff1916145b806108da57506108d982611748565b5b9050919050565b600680546108ee9061395e565b80601f016020809104026020016040519081016040528092919081815260200182805461091a9061395e565b80156109675780601f1061093c57610100808354040283529160200191610967565b820191906000526020600020905b81548152906001019060200180831161094a57829003601f168201915b505050505081565b6060600760018361098091906139bf565b81548110610991576109906139f3565b5b9060005260206000200180546109a69061395e565b80601f01602080910402602001604051908101604052809291908181526020018280546109d29061395e565b8015610a1f5780601f106109f457610100808354040283529160200191610a1f565b820191906000526020600020905b815481529060010190602001808311610a0257829003601f168201915b50505050509050919050565b600f6020528060005260406000206000915090505481565b610a4b6117b2565b73ffffffffffffffffffffffffffffffffffffffff168573ffffffffffffffffffffffffffffffffffffffff161480610a915750610a9085610a8b6117b2565b611419565b5b610ad0576040517f08c379a0000000000000000000000000000000000000000000000000000000008152600401610ac790613a94565b60405180910390fd5b610add85858585856117ba565b5050505050565b610aec6117b2565b73ffffffffffffffffffffffffffffffffffffffff16610b0a6110f4565b73ffffffffffffffffffffffffffffffffffffffff1614610b60576040517f08c379a0000000000000000000000000000000000000000000000000000000008152600401610b5790613b00565b60405180910390fd5b610b68611adc565b565b600e8181548110610b7a57600080fd5b906000526020600020016000915090505481565b60608151835114610bd4576040517f08c379a0000000000000000000000000000000000000000000000000000000008152600401610bcb90613b92565b60405180910390fd5b6000835167ffffffffffffffff811115610bf157610bf061311d565b5b604051908082528060200260200182016040528015610c1f5781602001602082028036833780820191505090505b50905060005b8451811015610c9c57610c6c858281518110610c4457610c436139f3565b5b6020026020010151858381518110610c5f57610c5e6139f3565b5b6020026020010151610736565b828281518110610c7f57610c7e6139f3565b5b60200260200101818152505080610c9590613bb2565b9050610c25565b508091505092915050565b600080610cb383611134565b119050919050565b60026005541415610d01576040517f08c379a0000000000000000000000000000000000000000000000000000000008152600401610cf890613c47565b60405180910390fd5b60026005819055506000600f60008373ffffffffffffffffffffffffffffffffffffffff1673ffffffffffffffffffffffffffffffffffffffff168152602001908152602001600020541415610d8c576040517f08c379a0000000000000000000000000000000000000000000000000000000008152600401610d8390613c8d565b60405180910390fd5b8073ffffffffffffffffffffffffffffffffffffffff166108fc600f60008473ffffffffffffffffffffffffffffffffffffffff1673ffffffffffffffffffffffffffffffffffffffff168152602001908152602001600020549081150290604051600060405180830381858888f19350505050158015610e11573d6000803e3d6000fd5b506000600f60008373ffffffffffffffffffffffffffffffffffffffff1673ffffffffffffffffffffffffffffffffffffffff16815260200190815260200160002081905550600160058190555050565b6000600360009054906101000a900460ff16905090565b610e816117b2565b73ffffffffffffffffffffffffffffffffffffffff168373ffffffffffffffffffffffffffffffffffffffff161480610ec75750610ec683610ec16117b2565b611419565b5b610f06576040517f08c379a0000000000000000000000000000000000000000000000000000000008152600401610efd90613a94565b60405180910390fd5b610f11838383611b3f565b505050565b610f1e6117b2565b73ffffffffffffffffffffffffffffffffffffffff16610f3c6110f4565b73ffffffffffffffffffffffffffffffffffffffff1614610f92576040517f08c379a0000000000000000000000000000000000000000000000000000000008152600401610f8990613b00565b60405180910390fd5b610f9c6000611e0e565b565b60078181548110610fae57600080fd5b906000526020600020016000915090508054610fc99061395e565b80601f0160208091040260200160405190810160405280929190818152602001828054610ff59061395e565b80156110425780601f1061101757610100808354040283529160200191611042565b820191906000526020600020905b81548152906001019060200180831161102557829003601f168201915b505050505081565b6110526117b2565b73ffffffffffffffffffffffffffffffffffffffff166110706110f4565b73ffffffffffffffffffffffffffffffffffffffff16146110c6576040517f08c379a00000000000000000000000000000000000000000000000000000000081526004016110bd90613b00565b60405180910390fd5b6110ce611ed4565b565b600d81815481106110e057600080fd5b906000526020600020016000915090505481565b6000600960009054906101000a900473ffffffffffffffffffffffffffffffffffffffff16905090565b6111306111296117b2565b8383611f37565b5050565b600060046000838152602001908152602001600020549050919050565b60085481565b600c818154811061116757600080fd5b906000526020600020016000915090505481565b600061118684611134565b90506008548411156111cd576040517f08c379a00000000000000000000000000000000000000000000000000000000081526004016111c490613cf9565b60405180910390fd5b60006001856111dc91906139bf565b9050600d81815481106111f2576111f16139f3565b5b906000526020600020015484836112099190613d19565b10611249576040517f08c379a000000000000000000000000000000000000000000000000000000000815260040161124090613de1565b60405180910390fd5b6000600e828154811061125f5761125e6139f3565b5b906000526020600020015414156112925761128b838686604051806020016040528060008152506120a4565b5050611414565b600084600e83815481106112a9576112a86139f3565b5b90600052602060002001546112be9190613e01565b905080341015611303576040517f08c379a00000000000000000000000000000000000000000000000000000000081526004016112fa90613ea7565b60405180910390fd5b6000600a80549050905060005b818110156113f35760006103e8600c8381548110611331576113306139f3565b5b9060005260206000200154856113479190613e01565b6113519190613ef6565b905080600f6000600a858154811061136c5761136b6139f3565b5b9060005260206000200160009054906101000a900473ffffffffffffffffffffffffffffffffffffffff1673ffffffffffffffffffffffffffffffffffffffff1673ffffffffffffffffffffffffffffffffffffffff16815260200190815260200160002060008282546113e09190613d19565b9250508190555081600101915050611310565b5061140f858888604051806020016040528060008152506120a4565b505050505b505050565b6000600160008473ffffffffffffffffffffffffffffffffffffffff1673ffffffffffffffffffffffffffffffffffffffff16815260200190815260200160002060008373ffffffffffffffffffffffffffffffffffffffff1673ffffffffffffffffffffffffffffffffffffffff16815260200190815260200160002060009054906101000a900460ff16905092915050565b600a81815481106114bd57600080fd5b906000526020600020016000915054906101000a900473ffffffffffffffffffffffffffffffffffffffff1681565b6114f46117b2565b73ffffffffffffffffffffffffffffffffffffffff168573ffffffffffffffffffffffffffffffffffffffff16148061153a5750611539856115346117b2565b611419565b5b611579576040517f08c379a000000000000000000000000000000000000000000000000000000000815260040161157090613a94565b60405180910390fd5b6115868585858585612255565b5050505050565b6115956117b2565b73ffffffffffffffffffffffffffffffffffffffff166115b36110f4565b73ffffffffffffffffffffffffffffffffffffffff1614611609576040517f08c379a000000000000000000000000000000000000000000000000000000000815260040161160090613b00565b60405180910390fd5b600073ffffffffffffffffffffffffffffffffffffffff168173ffffffffffffffffffffffffffffffffffffffff161415611679576040517f08c379a000000000000000000000000000000000000000000000000000000000815260040161167090613f99565b60405180910390fd5b61168281611e0e565b50565b61168d6117b2565b73ffffffffffffffffffffffffffffffffffffffff168373ffffffffffffffffffffffffffffffffffffffff1614806116d357506116d2836116cd6117b2565b611419565b5b611712576040517f08c379a000000000000000000000000000000000000000000000000000000000815260040161170990613a94565b60405180910390fd5b61171d8383836124f1565b505050565b600b60009054906101000a900473ffffffffffffffffffffffffffffffffffffffff1681565b60007f01ffc9a7000000000000000000000000000000000000000000000000000000007bffffffffffffffffffffffffffffffffffffffffffffffffffffffff1916827bffffffffffffffffffffffffffffffffffffffffffffffffffffffff1916149050919050565b600033905090565b81518351146117fe576040517f08c379a00000000000000000000000000000000000000000000000000000000081526004016117f59061402b565b60405180910390fd5b600073ffffffffffffffffffffffffffffffffffffffff168473ffffffffffffffffffffffffffffffffffffffff16141561186e576040517f08c379a0000000000000000000000000000000000000000000000000000000008152600401611865906140bd565b60405180910390fd5b60006118786117b2565b9050611888818787878787612738565b60005b8451811015611a395760008582815181106118a9576118a86139f3565b5b6020026020010151905060008583815181106118c8576118c76139f3565b5b60200260200101519050600080600084815260200190815260200160002060008b73ffffffffffffffffffffffffffffffffffffffff1673ffffffffffffffffffffffffffffffffffffffff16815260200190815260200160002054905081811015611969576040517f08c379a00000000000000000000000000000000000000000000000000000000081526004016119609061414f565b60405180910390fd5b81810360008085815260200190815260200160002060008c73ffffffffffffffffffffffffffffffffffffffff1673ffffffffffffffffffffffffffffffffffffffff168152602001908152602001600020819055508160008085815260200190815260200160002060008b73ffffffffffffffffffffffffffffffffffffffff1673ffffffffffffffffffffffffffffffffffffffff1681526020019081526020016000206000828254611a1e9190613d19565b9250508190555050505080611a3290613bb2565b905061188b565b508473ffffffffffffffffffffffffffffffffffffffff168673ffffffffffffffffffffffffffffffffffffffff168273ffffffffffffffffffffffffffffffffffffffff167f4a39dc06d4c0dbc64b70af90fd698a233a518aa5d07e595d983b8c0526c8f7fb8787604051611ab092919061416f565b60405180910390a4611ac6818787878787612756565b611ad481878787878761275e565b505050505050565b611ae4612945565b6000600360006101000a81548160ff0219169083151502179055507f5db9ee0a495bf2e6ff9c91a7834c1ba4fdd244a5e8aa4e537bd38aeae4b073aa611b286117b2565b604051611b359190613699565b60405180910390a1565b600073ffffffffffffffffffffffffffffffffffffffff168373ffffffffffffffffffffffffffffffffffffffff161415611baf576040517f08c379a0000000000000000000000000000000000000000000000000000000008152600401611ba690614218565b60405180910390fd5b8051825114611bf3576040517f08c379a0000000000000000000000000000000000000000000000000000000008152600401611bea9061402b565b60405180910390fd5b6000611bfd6117b2565b9050611c1d81856000868660405180602001604052806000815250612738565b60005b8351811015611d6a576000848281518110611c3e57611c3d6139f3565b5b602002602001015190506000848381518110611c5d57611c5c6139f3565b5b60200260200101519050600080600084815260200190815260200160002060008973ffffffffffffffffffffffffffffffffffffffff1673ffffffffffffffffffffffffffffffffffffffff16815260200190815260200160002054905081811015611cfe576040517f08c379a0000000000000000000000000000000000000000000000000000000008152600401611cf5906142aa565b60405180910390fd5b81810360008085815260200190815260200160002060008a73ffffffffffffffffffffffffffffffffffffffff1673ffffffffffffffffffffffffffffffffffffffff168152602001908152602001600020819055505050508080611d6290613bb2565b915050611c20565b50600073ffffffffffffffffffffffffffffffffffffffff168473ffffffffffffffffffffffffffffffffffffffff168273ffffffffffffffffffffffffffffffffffffffff167f4a39dc06d4c0dbc64b70af90fd698a233a518aa5d07e595d983b8c0526c8f7fb8686604051611de292919061416f565b60405180910390a4611e0881856000868660405180602001604052806000815250612756565b50505050565b6000600960009054906101000a900473ffffffffffffffffffffffffffffffffffffffff16905081600960006101000a81548173ffffffffffffffffffffffffffffffffffffffff021916908373ffffffffffffffffffffffffffffffffffffffff1602179055508173ffffffffffffffffffffffffffffffffffffffff168173ffffffffffffffffffffffffffffffffffffffff167f8be0079c531659141344cd1fd0a4f28419497f9722a3daafe3b4186f6b6457e060405160405180910390a35050565b611edc61298e565b6001600360006101000a81548160ff0219169083151502179055507f62e78cea01bee320cd4e420270b5ea74000d11b0c9f74754ebdbfc544b05a258611f206117b2565b604051611f2d9190613699565b60405180910390a1565b8173ffffffffffffffffffffffffffffffffffffffff168373ffffffffffffffffffffffffffffffffffffffff161415611fa6576040517f08c379a0000000000000000000000000000000000000000000000000000000008152600401611f9d9061433c565b60405180910390fd5b80600160008573ffffffffffffffffffffffffffffffffffffffff1673ffffffffffffffffffffffffffffffffffffffff16815260200190815260200160002060008473ffffffffffffffffffffffffffffffffffffffff1673ffffffffffffffffffffffffffffffffffffffff16815260200190815260200160002060006101000a81548160ff0219169083151502179055508173ffffffffffffffffffffffffffffffffffffffff168373ffffffffffffffffffffffffffffffffffffffff167f17307eab39ab6107e8899845ad3d59bd9653f200f220920489ca2b5937696c31836040516120979190612fe8565b60405180910390a3505050565b600073ffffffffffffffffffffffffffffffffffffffff168473ffffffffffffffffffffffffffffffffffffffff161415612114576040517f08c379a000000000000000000000000000000000000000000000000000000000815260040161210b906143ce565b60405180910390fd5b600061211e6117b2565b9050600061212b856129d8565b90506000612138856129d8565b905061214983600089858589612738565b8460008088815260200190815260200160002060008973ffffffffffffffffffffffffffffffffffffffff1673ffffffffffffffffffffffffffffffffffffffff16815260200190815260200160002060008282546121a89190613d19565b925050819055508673ffffffffffffffffffffffffffffffffffffffff16600073ffffffffffffffffffffffffffffffffffffffff168473ffffffffffffffffffffffffffffffffffffffff167fc3d58168c5ae7397731d063d5bbf3d657854427343f4c083240f7aacaa2d0f6289896040516122269291906143ee565b60405180910390a461223d83600089858589612756565b61224c83600089898989612a52565b50505050505050565b600073ffffffffffffffffffffffffffffffffffffffff168473ffffffffffffffffffffffffffffffffffffffff1614156122c5576040517f08c379a00000000000000000000000000000000000000000000000000000000081526004016122bc906140bd565b60405180910390fd5b60006122cf6117b2565b905060006122dc856129d8565b905060006122e9856129d8565b90506122f9838989858589612738565b600080600088815260200190815260200160002060008a73ffffffffffffffffffffffffffffffffffffffff1673ffffffffffffffffffffffffffffffffffffffff16815260200190815260200160002054905085811015612390576040517f08c379a00000000000000000000000000000000000000000000000000000000081526004016123879061414f565b60405180910390fd5b85810360008089815260200190815260200160002060008b73ffffffffffffffffffffffffffffffffffffffff1673ffffffffffffffffffffffffffffffffffffffff168152602001908152602001600020819055508560008089815260200190815260200160002060008a73ffffffffffffffffffffffffffffffffffffffff1673ffffffffffffffffffffffffffffffffffffffff16815260200190815260200160002060008282546124459190613d19565b925050819055508773ffffffffffffffffffffffffffffffffffffffff168973ffffffffffffffffffffffffffffffffffffffff168573ffffffffffffffffffffffffffffffffffffffff167fc3d58168c5ae7397731d063d5bbf3d657854427343f4c083240f7aacaa2d0f628a8a6040516124c29291906143ee565b60405180910390a46124d8848a8a86868a612756565b6124e6848a8a8a8a8a612a52565b505050505050505050565b600073ffffffffffffffffffffffffffffffffffffffff168373ffffffffffffffffffffffffffffffffffffffff161415612561576040517f08c379a000000000000000000000000000000000000000000000000000000000815260040161255890614218565b60405180910390fd5b600061256b6117b2565b90506000612578846129d8565b90506000612585846129d8565b90506125a583876000858560405180602001604052806000815250612738565b600080600087815260200190815260200160002060008873ffffffffffffffffffffffffffffffffffffffff1673ffffffffffffffffffffffffffffffffffffffff1681526020019081526020016000205490508481101561263c576040517f08c379a0000000000000000000000000000000000000000000000000000000008152600401612633906142aa565b60405180910390fd5b84810360008088815260200190815260200160002060008973ffffffffffffffffffffffffffffffffffffffff1673ffffffffffffffffffffffffffffffffffffffff16815260200190815260200160002081905550600073ffffffffffffffffffffffffffffffffffffffff168773ffffffffffffffffffffffffffffffffffffffff168573ffffffffffffffffffffffffffffffffffffffff167fc3d58168c5ae7397731d063d5bbf3d657854427343f4c083240f7aacaa2d0f6289896040516127099291906143ee565b60405180910390a461272f84886000868660405180602001604052806000815250612756565b50505050505050565b61274061298e565b61274e868686868686612c39565b505050505050565b505050505050565b61277d8473ffffffffffffffffffffffffffffffffffffffff16612e0b565b1561293d578373ffffffffffffffffffffffffffffffffffffffff1663bc197c8187878686866040518663ffffffff1660e01b81526004016127c395949392919061446c565b602060405180830381600087803b1580156127dd57600080fd5b505af192505050801561280e57506040513d601f19601f8201168201806040525081019061280b91906144e9565b60015b6128b45761281a614523565b806308c379a01415612877575061282f614545565b8061283a5750612879565b806040517f08c379a000000000000000000000000000000000000000000000000000000000815260040161286e919061309c565b60405180910390fd5b505b6040517f08c379a00000000000000000000000000000000000000000000000000000000081526004016128ab9061464d565b60405180910390fd5b63bc197c8160e01b7bffffffffffffffffffffffffffffffffffffffffffffffffffffffff1916817bffffffffffffffffffffffffffffffffffffffffffffffffffffffff19161461293b576040517f08c379a0000000000000000000000000000000000000000000000000000000008152600401612932906146df565b60405180910390fd5b505b505050505050565b61294d610e62565b61298c576040517f08c379a00000000000000000000000000000000000000000000000000000000081526004016129839061474b565b60405180910390fd5b565b612996610e62565b156129d6576040517f08c379a00000000000000000000000000000000000000000000000000000000081526004016129cd906147b7565b60405180910390fd5b565b60606000600167ffffffffffffffff8111156129f7576129f661311d565b5b604051908082528060200260200182016040528015612a255781602001602082028036833780820191505090505b5090508281600081518110612a3d57612a3c6139f3565b5b60200260200101818152505080915050919050565b612a718473ffffffffffffffffffffffffffffffffffffffff16612e0b565b15612c31578373ffffffffffffffffffffffffffffffffffffffff1663f23a6e6187878686866040518663ffffffff1660e01b8152600401612ab79594939291906147d7565b602060405180830381600087803b158015612ad157600080fd5b505af1925050508015612b0257506040513d601f19601f82011682018060405250810190612aff91906144e9565b60015b612ba857612b0e614523565b806308c379a01415612b6b5750612b23614545565b80612b2e5750612b6d565b806040517f08c379a0000000000000000000000000000000000000000000000000000000008152600401612b62919061309c565b60405180910390fd5b505b6040517f08c379a0000000000000000000000000000000000000000000000000000000008152600401612b9f9061464d565b60405180910390fd5b63f23a6e6160e01b7bffffffffffffffffffffffffffffffffffffffffffffffffffffffff1916817bffffffffffffffffffffffffffffffffffffffffffffffffffffffff191614612c2f576040517f08c379a0000000000000000000000000000000000000000000000000000000008152600401612c26906146df565b60405180910390fd5b505b505050505050565b612c47868686868686612e2e565b600073ffffffffffffffffffffffffffffffffffffffff168573ffffffffffffffffffffffffffffffffffffffff161415612cf95760005b8351811015612cf757828181518110612c9b57612c9a6139f3565b5b602002602001015160046000868481518110612cba57612cb96139f3565b5b602002602001015181526020019081526020016000206000828254612cdf9190613d19565b9250508190555080612cf090613bb2565b9050612c7f565b505b600073ffffffffffffffffffffffffffffffffffffffff168473ffffffffffffffffffffffffffffffffffffffff161415612e035760005b8351811015612e01576000848281518110612d4f57612d4e6139f3565b5b602002602001015190506000848381518110612d6e57612d6d6139f3565b5b6020026020010151905060006004600084815260200190815260200160002054905081811015612dd3576040517f08c379a0000000000000000000000000000000000000000000000000000000008152600401612dca906148a3565b60405180910390fd5b818103600460008581526020019081526020016000208190555050505080612dfa90613bb2565b9050612d31565b505b505050505050565b6000808273ffffffffffffffffffffffffffffffffffffffff163b119050919050565b505050505050565b6000604051905090565b600080fd5b600080fd5b600073ffffffffffffffffffffffffffffffffffffffff82169050919050565b6000612e7582612e4a565b9050919050565b612e8581612e6a565b8114612e9057600080fd5b50565b600081359050612ea281612e7c565b92915050565b6000819050919050565b612ebb81612ea8565b8114612ec657600080fd5b50565b600081359050612ed881612eb2565b92915050565b60008060408385031215612ef557612ef4612e40565b5b6000612f0385828601612e93565b9250506020612f1485828601612ec9565b9150509250929050565b612f2781612ea8565b82525050565b6000602082019050612f426000830184612f1e565b92915050565b60007fffffffff0000000000000000000000000000000000000000000000000000000082169050919050565b612f7d81612f48565b8114612f8857600080fd5b50565b600081359050612f9a81612f74565b92915050565b600060208284031215612fb657612fb5612e40565b5b6000612fc484828501612f8b565b91505092915050565b60008115159050919050565b612fe281612fcd565b82525050565b6000602082019050612ffd6000830184612fd9565b92915050565b600081519050919050565b600082825260208201905092915050565b60005b8381101561303d578082015181840152602081019050613022565b8381111561304c576000848401525b50505050565b6000601f19601f8301169050919050565b600061306e82613003565b613078818561300e565b935061308881856020860161301f565b61309181613052565b840191505092915050565b600060208201905081810360008301526130b68184613063565b905092915050565b6000602082840312156130d4576130d3612e40565b5b60006130e284828501612ec9565b91505092915050565b60006020828403121561310157613100612e40565b5b600061310f84828501612e93565b91505092915050565b600080fd5b7f4e487b7100000000000000000000000000000000000000000000000000000000600052604160045260246000fd5b61315582613052565b810181811067ffffffffffffffff821117156131745761317361311d565b5b80604052505050565b6000613187612e36565b9050613193828261314c565b919050565b600067ffffffffffffffff8211156131b3576131b261311d565b5b602082029050602081019050919050565b600080fd5b60006131dc6131d784613198565b61317d565b905080838252602082019050602084028301858111156131ff576131fe6131c4565b5b835b8181101561322857806132148882612ec9565b845260208401935050602081019050613201565b5050509392505050565b600082601f83011261324757613246613118565b5b81356132578482602086016131c9565b91505092915050565b600080fd5b600067ffffffffffffffff8211156132805761327f61311d565b5b61328982613052565b9050602081019050919050565b82818337600083830152505050565b60006132b86132b384613265565b61317d565b9050828152602081018484840111156132d4576132d3613260565b5b6132df848285613296565b509392505050565b600082601f8301126132fc576132fb613118565b5b813561330c8482602086016132a5565b91505092915050565b600080600080600060a0868803121561333157613330612e40565b5b600061333f88828901612e93565b955050602061335088828901612e93565b945050604086013567ffffffffffffffff81111561337157613370612e45565b5b61337d88828901613232565b935050606086013567ffffffffffffffff81111561339e5761339d612e45565b5b6133aa88828901613232565b925050608086013567ffffffffffffffff8111156133cb576133ca612e45565b5b6133d7888289016132e7565b9150509295509295909350565b600067ffffffffffffffff8211156133ff576133fe61311d565b5b602082029050602081019050919050565b600061342361341e846133e4565b61317d565b90508083825260208201905060208402830185811115613446576134456131c4565b5b835b8181101561346f578061345b8882612e93565b845260208401935050602081019050613448565b5050509392505050565b600082601f83011261348e5761348d613118565b5b813561349e848260208601613410565b91505092915050565b600080604083850312156134be576134bd612e40565b5b600083013567ffffffffffffffff8111156134dc576134db612e45565b5b6134e885828601613479565b925050602083013567ffffffffffffffff81111561350957613508612e45565b5b61351585828601613232565b9150509250929050565b600081519050919050565b600082825260208201905092915050565b6000819050602082019050919050565b61355481612ea8565b82525050565b6000613566838361354b565b60208301905092915050565b6000602082019050919050565b600061358a8261351f565b613594818561352a565b935061359f8361353b565b8060005b838110156135d05781516135b7888261355a565b97506135c283613572565b9250506001810190506135a3565b5085935050505092915050565b600060208201905081810360008301526135f7818461357f565b905092915050565b60008060006060848603121561361857613617612e40565b5b600061362686828701612e93565b935050602084013567ffffffffffffffff81111561364757613646612e45565b5b61365386828701613232565b925050604084013567ffffffffffffffff81111561367457613673612e45565b5b61368086828701613232565b9150509250925092565b61369381612e6a565b82525050565b60006020820190506136ae600083018461368a565b92915050565b6136bd81612fcd565b81146136c857600080fd5b50565b6000813590506136da816136b4565b92915050565b600080604083850312156136f7576136f6612e40565b5b600061370585828601612e93565b9250506020613716858286016136cb565b9150509250929050565b60008060006060848603121561373957613738612e40565b5b600061374786828701612ec9565b935050602061375886828701612ec9565b925050604061376986828701612e93565b9150509250925092565b6000806040838503121561378a57613789612e40565b5b600061379885828601612e93565b92505060206137a985828601612e93565b9150509250929050565b600080600080600060a086880312156137cf576137ce612e40565b5b60006137dd88828901612e93565b95505060206137ee88828901612e93565b94505060406137ff88828901612ec9565b935050606061381088828901612ec9565b925050608086013567ffffffffffffffff81111561383157613830612e45565b5b61383d888289016132e7565b9150509295509295909350565b60008060006060848603121561386357613862612e40565b5b600061387186828701612e93565b935050602061388286828701612ec9565b925050604061389386828701612ec9565b9150509250925092565b7f455243313135353a2061646472657373207a65726f206973206e6f742061207660008201527f616c6964206f776e657200000000000000000000000000000000000000000000602082015250565b60006138f9602a8361300e565b91506139048261389d565b604082019050919050565b60006020820190508181036000830152613928816138ec565b9050919050565b7f4e487b7100000000000000000000000000000000000000000000000000000000600052602260045260246000fd5b6000600282049050600182168061397657607f821691505b6020821081141561398a5761398961392f565b5b50919050565b7f4e487b7100000000000000000000000000000000000000000000000000000000600052601160045260246000fd5b60006139ca82612ea8565b91506139d583612ea8565b9250828210156139e8576139e7613990565b5b828203905092915050565b7f4e487b7100000000000000000000000000000000000000000000000000000000600052603260045260246000fd5b7f455243313135353a2063616c6c6572206973206e6f7420746f6b656e206f776e60008201527f6572206e6f7220617070726f7665640000000000000000000000000000000000602082015250565b6000613a7e602f8361300e565b9150613a8982613a22565b604082019050919050565b60006020820190508181036000830152613aad81613a71565b9050919050565b7f4f776e61626c653a2063616c6c6572206973206e6f7420746865206f776e6572600082015250565b6000613aea60208361300e565b9150613af582613ab4565b602082019050919050565b60006020820190508181036000830152613b1981613add565b9050919050565b7f455243313135353a206163636f756e747320616e6420696473206c656e67746860008201527f206d69736d617463680000000000000000000000000000000000000000000000602082015250565b6000613b7c60298361300e565b9150613b8782613b20565b604082019050919050565b60006020820190508181036000830152613bab81613b6f565b9050919050565b6000613bbd82612ea8565b91507fffffffffffffffffffffffffffffffffffffffffffffffffffffffffffffffff821415613bf057613bef613990565b5b600182019050919050565b7f5265656e7472616e637947756172643a207265656e7472616e742063616c6c00600082015250565b6000613c31601f8361300e565b9150613c3c82613bfb565b602082019050919050565b60006020820190508181036000830152613c6081613c24565b9050919050565b50565b6000613c7760008361300e565b9150613c8282613c67565b600082019050919050565b60006020820190508181036000830152613ca681613c6a565b9050919050565b7f6964203c3d206d61784964000000000000000000000000000000000000000000600082015250565b6000613ce3600b8361300e565b9150613cee82613cad565b602082019050919050565b60006020820190508181036000830152613d1281613cd6565b9050919050565b6000613d2482612ea8565b9150613d2f83612ea8565b9250827fffffffffffffffffffffffffffffffffffffffffffffffffffffffffffffffff03821115613d6457613d63613990565b5b828201905092915050565b7f285f746f74616c537570706c79202b20616d6f756e7429203c206d617853757060008201527f706c6965735b6964202d20315d00000000000000000000000000000000000000602082015250565b6000613dcb602d8361300e565b9150613dd682613d6f565b604082019050919050565b60006020820190508181036000830152613dfa81613dbe565b9050919050565b6000613e0c82612ea8565b9150613e1783612ea8565b9250817fffffffffffffffffffffffffffffffffffffffffffffffffffffffffffffffff0483118215151615613e5057613e4f613990565b5b828202905092915050565b7f6d73672e76616c7565203e3d20746f74616c436f737400000000000000000000600082015250565b6000613e9160168361300e565b9150613e9c82613e5b565b602082019050919050565b60006020820190508181036000830152613ec081613e84565b9050919050565b7f4e487b7100000000000000000000000000000000000000000000000000000000600052601260045260246000fd5b6000613f0182612ea8565b9150613f0c83612ea8565b925082613f1c57613f1b613ec7565b5b828204905092915050565b7f4f776e61626c653a206e6577206f776e657220697320746865207a65726f206160008201527f6464726573730000000000000000000000000000000000000000000000000000602082015250565b6000613f8360268361300e565b9150613f8e82613f27565b604082019050919050565b60006020820190508181036000830152613fb281613f76565b9050919050565b7f455243313135353a2069647320616e6420616d6f756e7473206c656e6774682060008201527f6d69736d61746368000000000000000000000000000000000000000000000000602082015250565b600061401560288361300e565b915061402082613fb9565b604082019050919050565b6000602082019050818103600083015261404481614008565b9050919050565b7f455243313135353a207472616e7366657220746f20746865207a65726f20616460008201527f6472657373000000000000000000000000000000000000000000000000000000602082015250565b60006140a760258361300e565b91506140b28261404b565b604082019050919050565b600060208201905081810360008301526140d68161409a565b9050919050565b7f455243313135353a20696e73756666696369656e742062616c616e636520666f60008201527f72207472616e7366657200000000000000000000000000000000000000000000602082015250565b6000614139602a8361300e565b9150614144826140dd565b604082019050919050565b600060208201905081810360008301526141688161412c565b9050919050565b60006040820190508181036000830152614189818561357f565b9050818103602083015261419d818461357f565b90509392505050565b7f455243313135353a206275726e2066726f6d20746865207a65726f206164647260008201527f6573730000000000000000000000000000000000000000000000000000000000602082015250565b600061420260238361300e565b915061420d826141a6565b604082019050919050565b60006020820190508181036000830152614231816141f5565b9050919050565b7f455243313135353a206275726e20616d6f756e7420657863656564732062616c60008201527f616e636500000000000000000000000000000000000000000000000000000000602082015250565b600061429460248361300e565b915061429f82614238565b604082019050919050565b600060208201905081810360008301526142c381614287565b9050919050565b7f455243313135353a2073657474696e6720617070726f76616c2073746174757360008201527f20666f722073656c660000000000000000000000000000000000000000000000602082015250565b600061432660298361300e565b9150614331826142ca565b604082019050919050565b6000602082019050818103600083015261435581614319565b9050919050565b7f455243313135353a206d696e7420746f20746865207a65726f2061646472657360008201527f7300000000000000000000000000000000000000000000000000000000000000602082015250565b60006143b860218361300e565b91506143c38261435c565b604082019050919050565b600060208201905081810360008301526143e7816143ab565b9050919050565b60006040820190506144036000830185612f1e565b6144106020830184612f1e565b9392505050565b600081519050919050565b600082825260208201905092915050565b600061443e82614417565b6144488185614422565b935061445881856020860161301f565b61446181613052565b840191505092915050565b600060a082019050614481600083018861368a565b61448e602083018761368a565b81810360408301526144a0818661357f565b905081810360608301526144b4818561357f565b905081810360808301526144c88184614433565b90509695505050505050565b6000815190506144e381612f74565b92915050565b6000602082840312156144ff576144fe612e40565b5b600061450d848285016144d4565b91505092915050565b60008160e01c9050919050565b600060033d11156145425760046000803e61453f600051614516565b90505b90565b600060443d1015614555576145d8565b61455d612e36565b60043d036004823e80513d602482011167ffffffffffffffff821117156145855750506145d8565b808201805167ffffffffffffffff8111156145a357505050506145d8565b80602083010160043d0385018111156145c05750505050506145d8565b6145cf8260200185018661314c565b82955050505050505b90565b7f455243313135353a207472616e7366657220746f206e6f6e204552433131353560008201527f526563656976657220696d706c656d656e746572000000000000000000000000602082015250565b600061463760348361300e565b9150614642826145db565b604082019050919050565b600060208201905081810360008301526146668161462a565b9050919050565b7f455243313135353a204552433131353552656365697665722072656a6563746560008201527f6420746f6b656e73000000000000000000000000000000000000000000000000602082015250565b60006146c960288361300e565b91506146d48261466d565b604082019050919050565b600060208201905081810360008301526146f8816146bc565b9050919050565b7f5061757361626c653a206e6f7420706175736564000000000000000000000000600082015250565b600061473560148361300e565b9150614740826146ff565b602082019050919050565b6000602082019050818103600083015261476481614728565b9050919050565b7f5061757361626c653a2070617573656400000000000000000000000000000000600082015250565b60006147a160108361300e565b91506147ac8261476b565b602082019050919050565b600060208201905081810360008301526147d081614794565b9050919050565b600060a0820190506147ec600083018861368a565b6147f9602083018761368a565b6148066040830186612f1e565b6148136060830185612f1e565b81810360808301526148258184614433565b90509695505050505050565b7f455243313135353a206275726e20616d6f756e74206578636565647320746f7460008201527f616c537570706c79000000000000000000000000000000000000000000000000602082015250565b600061488d60288361300e565b915061489882614831565b604082019050919050565b600060208201905081810360008301526148bc81614880565b905091905056fea264697066735822122092862ba5c9c67567bee51f39e2a55c9e73495b68f7d735fef87398b519325ef264736f6c63430008090033",
  "linkReferences": {},
  "deployedLinkReferences": {}
}